:020000040800F2
:10000000900F0020ED01000829600008211C000865
:10001000256000087D1500086B66000800000000E0
:10002000000000000000000000000000E96100087E
:10003000B519000800000000B1600008FD6200086A
:10004000070200080702000807020008070200086C
:10005000070200080702000807020008070200085C
:10006000070200080702000807020008070200084C
:10007000070200080702000807020008070200083C
:10008000070200080702000807020008070200082C
:10009000070200080702000807020008070200081C
:1000A000070200080702000807020008070200080C
:1000B00007020008070200080702000807020008FC
:1000C00007020008070200080702000807020008EC
:1000D00007020008D96300080702000861640008ED
:1000E00007020008070200080702000807020008CC
:1000F00007020008070200080702000807020008BC
:1001000007020008070200080702000807020008AB
:1001100007020008070200080702000861630008E0
:10012000070200080702000807020008070200088B
:1001300000F002F800F04AF80AA090E8000C8244AF
:100140008344AAF10107DA4501D100F03FF8AFF28C
:10015000090EBAE80F0013F0010F18BFFB1A43F0A5
:1001600001031847B4870000D4870000103A24BF69
:1001700078C878C1FAD8520724BF30C830C144BF0C
:1001800004680C607047000000230024002500264E
:10019000103A28BF78C1FBD8520728BF30C148BFEA
:1001A0000B607047662906F04787732900F0768355
:1001B000002070471FB500F087FB040000200021DD
:1001C00006F00CFDE0601FBD10B510BD00F07CFC1A
:1001D0001146FFF7EFFF06F0E5FA00F09AFC03B4D2
:1001E000FFF7F2FF03BC06F05DFA00000948804704
:1001F00009480047FEE7FEE7FEE7FEE7FEE7FEE709
:10020000FEE7FEE7FEE7FEE704480549054A064B20
:1002100070470000016300083101000890090020C8
:10022000900F0020900B0020900B002070470000E2
:100230000FB4044910B503AA029800F033FB10BCB8
:100240005DF814FB1800002070B50C460546012A25
:1002500005D02878800600D5EA69002302E0012352
:1002600005E05B1C934202D2E05C0028F9D1A8694A
:10027000E618C01AA861286A184428622846AFF315
:10028000008004E0D5E9012114F8010B9047B44245
:10029000F8D32846AFF3008070BD00002DE9F05F71
:1002A000894604464FF0000ADFF874B1FB44C0F8F9
:1002B00020A02046E1688847002874D0252806D071
:1002C000D4E901219047206A401C2062F1E7002612
:1002D0005F462046E16888472028054607DB312D28
:1002E00005D2781910F8200C08B10643F1E7B007E1
:1002F00001D526F00406C4F81CA00027C4F818A0F5
:100300002A2D09D0284606F0C6F938B304EB870831
:10031000303DC8F8185019E059F8041B204604EB8A
:1003200087029161E1688847012F054618D1E0698D
:10033000002820DA26F020061DE0D8F8180000EB8F
:10034000800005EB40003038C8F818002046E1680E
:100350008847054606F09FF90028EED1012F0AD004
:100360002E2D08D12046E16888477F1C0546022FC4
:1003700046F02006C4DBA069002803DA404246F0BC
:100380000106A061F00701D026F010066C2D0BD0FD
:10039000682D09D04C2D39D06A2D35D0742D35D02B
:1003A0007A2D33D016E038E0E1682F4620468847A2
:1003B000B842054609D16C2F26D04FF48060E16821
:1003C000064320468847054604E06C2F1AD04FF4B8
:1003D000807006430DB3A5F14100192802D82035DD
:1003E00046F400664A462946204626604E46FFF7F8
:1003F000D9FE80B101280BD0F61D26F0070000F1D0
:10040000080956E74020E4E78020D8E70020D6E737
:1004100006F104094DE7284652E7206ABDE8F09F3F
:100420004C850000704770477047704770472DE952
:10043000FF4F0C461E464FF0FF378BB0D2E900014C
:10044000DDF860800A908A46C1F30A5505B93D4639
:10045000002108464FF00000BAF1000F00F4400000
:1004600005DA00EB80004FF4400101EA50004FEA4A
:100470009059B9F1010F00DDB9460A9850EA4A00D7
:100480000ED044F61050A5F2FF3545432F14B8F1B5
:10049000000F1ED07542291E1EDDC9F100021CE0AE
:1004A000B8F1010F4FF0000001D0302103E0F2431A
:1004B00005E02154401CB042FBDB30460022002105
:1004C00021540B99C1F80880C1E900200FB0BDE8A4
:1004D000F08FBD1B6D1CDEE74A4600DA694206A8B4
:1004E00000F07CFA06AB93E8070003AB83E8070053
:1004F00050460A9900F054FB8DE80700A0F5005023
:100500001F3800900398002D09DD42F21F014A4672
:10051000084403A90390684600F0B3FD08E0A0F585
:1005200000504A461F3803A90390684600F0BDFDFD
:100530008DE807000004000C03D04FF0FF304108A5
:1005400000E01046B8F1000F03D0002200921546DB
:100550001EE0751E05D400F0BBF9303262556D1EE9
:10056000F9D5B3460122084302D000227F1C04E0E3
:100570002078302801D100227F1E002A099786D0DA
:100580001DE0112D07DA00F0A3F9303262556D1C21
:1005900050EA0102F5D1084302D00098C8B10EE03C
:1005A0000021681E05E0235C625C63542254401EF7
:1005B000491C8142F7DBAB46A81B401E0990002076
:1005C00004F80B000B98099AC0F80880C0E9002BCA
:1005D0007CE711264FF0000859E72DE9F04F8846D7
:1005E0000446D21D22F0070191B0D1E90001CDE906
:1005F0000A0106F03CF802460B98C00F01D02D20EE
:1006000007E02068810701D52B2002E0202101EAC4
:10061000C000032A099001D0072A05DB03464146A2
:10062000204600F09BF90BE12078800601D5E069B7
:1006300000E00620B8F1650F814606D0B8F1660FDC
:1006400018D0B8F1670F70D131E00020B9F1110F67
:10065000009001DB112301E009F101030AAA01A9BD
:100660000CA8FFF7E4FEDDE90C70002609F1010596
:10067000834647E001204B4600904FF000470AAA0E
:1006800001A90CA8FFF7D3FEDDE90DB00C995D467A
:10069000002610B909F101000D18B9EB050003D4CB
:1006A000C0F1FF3609F10105A5EB09002BE0B9F116
:1006B000010F01DA4FF001090020B9F1110F00908C
:1006C000484601DD112300E003460AAA01A90CA84F
:1006D000FFF7ADFEDDE90C704D460026834620781D
:1006E00000070AD4AB4500DA5D4601A8012D04DD00
:1006F000411911F8011C302907D04F4502DA17F1D2
:10070000040F04DA012082460FE06D1EEEE7002F91
:1007100002DCED1B3E4403E0781CA84200DD7D1C9A
:10072000B81B00F1010A4FF000472078000703D4FE
:10073000AA4501DB4FF0FF3A0021B7F1004F0DF160
:1007400043088DF8431024D002202B23002F01DA18
:100750007F422D230A21021EA0F1010000DC5FB1BF
:1007600097FBF1FC97FBF1F201FB1C7C17460CF1A7
:10077000300C08F801CDEEE7A8F1010003702188E4
:10078000090501D5452100E06521A0F1010800F827
:10079000011C09980FA9A1EB0807FF1D00B101205A
:1007A000411901EBEA70A1693844081A401EA061A2
:1007B0002078C00602D42046AFF30080099828B103
:1007C000D4E901219047206A401C20622078C006AD
:1007D00022D52046AFF300801EE0002E04DBB34597
:1007E00002DD01A8805D00E03020D4E901219047BE
:1007F000206A401C2062761CAAF101005FEA000A10
:100800000AD100F061F8C0680168405CD4E90121B8
:100810009047206A401C2062281EA5F10105DCDCFF
:1008200007E0D4E9012118F8010B9047206A401C29
:100830002062381EA7F10107F3DC2046AFF30080E9
:10084000032011B043E6000001694A1C02610878E8
:10085000704700B58FB0CDE9013100210591054900
:100860007944CDE9031011466846FFF717FD0FB034
:1008700000BD0000E5FFFFFF10B5436913B1AFF302
:10088000008001E0FFF7E0FC012010BD127800F1CC
:1008900024010A7000224A700122EDE711684FF02E
:1008A000FF32E9E7074B70B50D467B44FFF7D1FFF8
:1008B0000446284600F000F910B14FF0FF3070BD3B
:1008C000204670BDDB5E0000004870474C090020E8
:1008D00030B5B0F10A024FEA900E71F100034EEA12
:1008E000817EB0EB0E0061EB91014FEA101E4EEAE3
:1008F000017E10EB0E0041EB11114FEA102E4EEA73
:10090000016E10EB0E0041EB11214FEA104E4EEA42
:10091000014E10EB0E0041EB1141401841F1000176
:100920004FEAD00040EA41704FEAD10110EB800558
:100930004FEA810444EA907444EB01046D1944EBDE
:100940000404521BA3414FF0000348BF0A3200D5F4
:1009500030BD401C41F1000130BD00002DE9F041E7
:100960001F46044603260168072A01F4006004DBE1
:1009700008B116A505E016A503E008B115A500E02D
:1009800015A521F010002060A069C01EA0610FB164
:10099000401EA0612046AFF300804FB1D4E9012191
:1009A00038469047206A401C2062C01C206206E046
:1009B000206AFAE7D4E9012115F8010B9047761E69
:1009C000F8D22046AFF30080BDE8F0814E414E00E2
:1009D0006E616E00494E4600696E66002DE9F04773
:1009E000814616468AB0334878440DC88DE80D001C
:1009F00030487844801C03AC0DC884E80D0041F6F3
:100A00009B300844372190FBF1F290FBF1F5A5F102
:100A1000800501FB12041B3C02D56442012000E06A
:100A20000020DFF890A080460027FA44AAF1BE0A11
:100A30000DE0E00709D03246684607EB47010AEBB4
:100A4000810100F032FB8DE8070064107F1C002C50
:100A5000EFD1184F7F44AC3F18E0E80714D007EB04
:100A600004100DF1180A90E80E008AE80E00C06824
:100A7000F04201D198190890324606A903A800F067
:100A800014FB03AB83E807006D10641C002DE4D158
:100A900032466946B8F1000F03A802D000F0F1FA1F
:100AA00001E000F002FBC9E90001C9F808200AB022
:100AB000BDE8F087A07E0000007B00F0800070475A
:100AC000004870472C0900207546FFF7F9FFAE4635
:100AD00005006946534620F00700854618B020B54A
:100AE000FFF792FBBDE820404FF000064FF00007F3
:100AF0004FF000084FF0000B21F00701AC46ACE8C6
:100B0000C009ACE8C009ACE8C009ACE8C0098D4632
:100B100070470446AFF300802046FFF760FB0000FB
:100B20004FF0013C50F8042B51F8043B9A4221D17C
:100B3000A2EB0C03934313EACC1317D150F8042B08
:100B400051F8043B9A4215D1A2EB0C03934313EAEC
:100B5000CC130BD150F8042B51F8043B9A4209D125
:100B6000A2EB0C03934313EACC13DBD04FF000004D
:100B7000704700BFD01A01BAB1FA81F101F0180133
:100B800022FA01F0CB40C1F12001DBB2C0B2C01AA1
:100B90002CFA01F3D11A914311EAC311E6D170473F
:100BA0005FEA400C08BF91F0000F4FEA8C234FEA38
:100BB000C12243EA51514FEA1C5018BF00F5F040E2
:100BC0004FEA300018BF41F000415FEA6C5C00F072
:100BD0002980BCF1FF3F08BF40F080407047130CF4
:100BE00006BF12044FF0100C4FF0000C130E04BFA0
:100BF00012020CF1080C130F04BF12010CF1040CCB
:100C0000930F04BF92000CF1020CD30F04BF5200EB
:100C10000CF1010C11464FF00002A0F11F00A0EBF7
:100C20000C00704711F0004F08BF704731F00041D1
:100C30003FF4D5AF0B0C06BF09044FF0100C4FF07A
:100C4000000C0B0E04BF09020CF1080C0B0F04BFC3
:100C500009010CF1040C8B0F04BF89000CF1020C8C
:100C6000CB0F04BF49000CF1010CCCF12003A0EB29
:100C70000C0022FA03F302FA0CF241EA030100F13C
:100C80000100704720F07F4C80EA030023F07F478B
:100C9000ACEB070303F57C5300F0004003F1FF03C6
:100CA0002DE980494FEA154B09B44FEA144325EA70
:100CB0000B4E24EA03480FF2042606EB13274908DB
:100CC0003E785FEA320203FB0667C7F5000707FBC1
:100CD00006F64FEA54374FEAD64606F1020607FBFE
:100CE000066CCCF1005C4FEA1C472CEA074C07FB72
:100CF00006F40CFB06F504EB15464FEA961634BFD6
:100D000000204FF000404FEAD13706FB07FC4FEAC6
:100D10001C4C0CFB0BF7D21B03FB0CF761EB070120
:100D20000CFB0EF7B0EB074072EB17420CFB08F719
:100D300034BFA2EB0742B2EB074261EB17414FEA27
:100D40000C444FEA910706FB07FC4FEA1C4C0CFBD6
:100D50000BF7B0EBC74072EB573203FB0CF734BF15
:100D6000A2EBC742B2EBC74261EB57310CFB0EF767
:100D7000B0EBC70072EB57720CFB08F734BFA2EB65
:100D8000C702B2EBC70261EB5771039F4FEA816163
:100D900041EA921104EBCC044FEAD1374FEA826268
:100DA00006FB07FC42EA90124FEA80604FEA1C4CB7
:100DB0000CFB0BF7D21B03FB0CF761EB07010CFBE1
:100DC0000EF7B0EB074072EB17420CFB08F734BF8D
:100DD000A2EB0742B2EB074261EB17414FEA8C5599
:100DE0004FEA910704EB9C2406FB07FC4FEA1C4CDE
:100DF0000CFB0BF7B0EBC74072EB573203FB0CF761
:100E000034BFA2EBC742B2EBC74261EB57310CFBD8
:100E10000EF7B0EBC70072EB57720CFB08F734BF4C
:100E2000A2EBC702B2EBC70261EB577115EB4C2581
:100E30004FEA816141EA92114FEA82624FEAD1376B
:100E400042EA901206FB07FC44F100044FEA80607E
:100E50004FEA1C4C0CFB0BF7D21B03FB0CF761EBAE
:100E600007010CFB0EF7B0EB074072EB17420CFBCF
:100E700008F734BFA2EB0742B2EB074261EB174120
:100E800015EB1C154FEA813141EA92414FEA82325B
:100E900042EA90424FEA80304FEA0C7644F1000477
:100EA00048EA03434EEA0B484FF0000EB2EB080C41
:100EB00071EB030724BF624639464EEB0E0E4FF02E
:100EC000000B0018524149414BEB0B0BB2EB080CE5
:100ED00071EB03077BF1000B24BF624639464EEBF2
:100EE0000E0E4FF0000B0018524149414BEB0B0B1B
:100EF000B2EB080C71EB03077BF1000B24BF6246D9
:100F000039464EEB0E0E51EA020718BF46F00106B5
:100F100016EB0E7655F1000254F1000103D5BDE841
:100F20008901BDE80088BDE88901BDE80048B6191F
:100F3000524141EB0101A3F10103704780807F7EA4
:100F40007D7C7B7A7978777676757473727171703F
:100F50006F6E6E6D6C6C6B6A6A69686867666665F1
:100F60006464636362616160605F5F5E5E5D5D5C7F
:100F70005C5B5B5A5A5959585857575656555555F0
:100F80005454535352525251515050504F4F4F4E50
:100F90004E4D4D4D4C4C4C4B4B4B4A4A4A4949499E
:100FA00048484847474747464646454545444444E0
:100FB000444343434342424242414141002B26D4F1
:100FC000770021D01CB54FEA370703B44FF010006B
:100FD0004FF010014FF000000FBCBDE810400BF1C6
:100FE000010BBBF1010F08BF5FEA170722BF12F127
:100FF000010211F101014FF0004143F1000300F043
:10100000004043EA00007047F9D35708DAE746EAA0
:10101000064613F1400F4FEA16461FDD13F1200F6D
:10102000DFBF16430A46002120335B42C8D0C3F11C
:10103000200746EA064602FA07F74FEA164646EA4E
:101040000706C3F1200722FA03F201FA07F721FA93
:1010500003F14FF0000342EA0702B1E746EA020655
:1010600046EA06464FEA164646EA0106BCBF46EA8D
:101070000646360C4FF000034FF000024FF000011F
:101080009EE72DE9C048934630B491E8380007C880
:1010900031EA400C48BF34EA430C03D5FFF7F2FDB8
:1010A000FFF78CFFF0BCBDE800882DE9C0489346EF
:1010B00030B491E8380007C810F0804F08BF13F033
:1010C000804F03D100F005F8FFF778FFF0BCBDE8D2
:1010D000008820F07F4780EA030023F07F4C07EB75
:1010E0000C03A3F57C5300F00040A3F1FE0392F043
:1010F000000F00F0B38095F0000F00F077802DE92D
:1011000001494FEA11404FEA144621EA004800FB2A
:1011100006FC24EA064708FB06F607FB08F800FB76
:1011200007F718EB06484CEB164C4FEA124B18EB3E
:1011300007484FEA15464CEB174022EA0B4E0BFBD3
:1011400006FC25EA06470EFB06F607FB0EFE0BFB28
:1011500007F71EEB064E4CEB164C4FF000061EEB4D
:10116000074E4CEB174B18EB0B0840F1000018EB47
:101170000E0B58EB000840F100008F1A4FF00001F1
:101180003CBFC943661B14BFB5EB040C00213CBF38
:10119000C943F61B4FEA17444EEA8E0E27EA044570
:1011A0004FEA1C4704FB07622CEA074C05FB07F7D4
:1011B0000CFB05F604FB0CFC16EB074642EB174252
:1011C00016EB0C4642EB1C421BEB060658EB0202E8
:1011D000414146EA9E0601D5BDE80189B619524152
:1011E00041EB0101A3F10103BDE801894FEA144578
:1011F0004FEA114724EA054621EA074C05FB07F4AC
:1012000006FB07F70CFB06F105FB0CFC11EB074195
:1012100044EB17444FEA124711EB0C4144EB1C44DA
:1012200022EA074C05FB07F206FB07F70CFB06F664
:1012300005FB0CFC16EB074642EB174216EB0C467F
:1012400042EB1C456A1854F1000148BF7047B619BB
:10125000524141EB0101A3F10103704795F0000FEA
:1012600037D04FEA11424FEA144721EA024624EAF6
:10127000074C02FB07F106FB07F70CFB06F402FB29
:101280000CFC14EB074441EB17414FEA154714EBF4
:101290000C4441EB1C4125EA074C02FB07F506FB19
:1012A00007F70CFB06F602FB0CFC16EB074645EBBA
:1012B000174516EB0C4645EB1C42121951F1000183
:1012C00048BF7047B619524141EB0101A3F1010338
:1012D00070474FEA14454FEA114724EA054621EAD0
:1012E000074C05FB07F106FB07F70CFB06F24FF076
:1012F000000605FB0CFC12EB074241EB174112EB19
:101300000C4251EB1C4148BF7047921841EB010160
:10131000A3F10103704721B1826842F001028260AB
:1013200003E0826822F001028260704710B5044633
:101330001248844208D10121401504F0DBFE00214F
:10134000601504F0D7FE17E00D48844208D1012152
:10135000001504F0CFFE0021201504F0CBFE0BE0B9
:101360000848844208D10121C80304F0C3FE0021CB
:101370004FF4004004F0BEFE10BD00000024014008
:1013800000280140003C0140014600208A6802F02C
:1013900004020AB1012000E0002070470146C86C39
:1013A00080B270470246002013680B400BB1012049
:1013B00000E000207047014600208A6802F0080221
:1013C0000AB1012000E000207047000030B502465D
:1013D0000020002350680F4C20400D790C6844EA2F
:1013E00005242043506090680B4C2040D1E9025402
:1013F0002C434D7944EA450420439060D06A20F4A0
:1014000070000C7C641EE4B2234340EA0350D062B7
:1014100030BD0000FFFEF0FFFDF7F1FFF0B5044620
:101420000D4600200021092D11DDE068A5F10A0616
:1014300006EB4607072606FA07F18843A5F10A06D8
:1014400006EB460603FA06F10843E0600CE020696B
:1014500005EB4507072606FA07F1884305EB450625
:1014600003FA06F108432061072A0FDA606B561E63
:1014700006EB86071F2606FA07F18843561E06EB81
:10148000860605FA06F10843606322E00D2A0FDAAA
:10149000206BD61F06EB86071F2606FA07F1884346
:1014A000D61F06EB860605FA06F10843206310E016
:1014B000E06AA2F10D0606EB86071F2606FA07F181
:1014C0008843A2F10D0606EB860605FA06F10843ED
:1014D000E062F0BD816841F008018160704721B190
:1014E000826842F4A002826003E0826822F4A002D3
:1014F00082607047816841F004018160704700009C
:1015000000B585B00121C80304F0E4FD0121C80342
:1015100004F0F0FD00214FF4004004F0EBFD16480C
:10152000FFF704FF002000908DF804008DF80500FF
:101530004FF4602002900020039001208DF81000ED
:1015400069460D48FFF742FF01210B48FFF7E3FE14
:101550000948FFF7BFFF00BF0748FFF72CFF00282F
:10156000FAD10548FFF7C6FF00BF0348FFF70CFF9D
:101570000028FAD105B000BD003C014000BFFEE7E5
:1015800010B500241548006820F0F00013490860E9
:101590000846006840F08000086004E0601CC4B2A7
:1015A000012005F0CBF80E48006808B1642CF5DB8B
:1015B000642C01DB012010BD002404E0601CC4B2D7
:1015C000012005F0BBF80648006808B9642CF5DB7B
:1015D000642C01DB0120EEE70020ECE7000801406D
:1015E0000401214208B50121042004F073FD02200A
:1015F000ADF8000010208DF8030003208DF80200E4
:101600006946064800F065FA0221044800F0ECFA49
:1016100000F068F8FFF7B4FF08BD000000080140C3
:1016200010B5002404E0601CC4B2012005F086F867
:101630000D48006808B1642CF5DB002404E0601C50
:10164000C4B2012005F07AF80748006808B9642C94
:10165000F5DB282005F072F80348006808B1012086
:1016600010BD0020FCE700000401214270B50024F9
:10167000002506E06006040EFFF7D2FF0443681C55
:10168000C5B2082DF6DB204670BD7CB505460E467A
:1016900000F028F8FFF774FFF8B9002405E0FFF721
:1016A000E5FF0DF80400601CC4B2052CF7DB9DF8C3
:1016B00000009DF8011008449DF8021008449DF8B0
:1016C000031008449DF80410884208D19DF80000DA
:1016D00030709DF80200287001E001207CBD0020E0
:1016E000FCE7000010B50C48006820F0F0000A4943
:1016F00008600846006840F0300008600020074994
:101700000860142004F0F4FF01200549C1F88401A9
:101710001E2005F013F810BD00080140840121428D
:101720000000214210B500241548406820F47040A4
:10173000134948600846406840F40040486004E0AF
:10174000601CC4B2012004F0F9FF0E48006808B123
:10175000C82CF5DBC82C01DB012010BD002404E0FF
:10176000601CC4B2012004F0E9FF0648006808B913
:10177000F02CF5DBF02C01DB0120EEE70020ECE79C
:10178000002001402C0124422DE9F84F00F0CCF854
:1017900000F0A8F8FFF7C6FFCC2000F0D1F8BE207B
:1017A00000F0CEF800F08CF8834600F089F804468B
:1017B000072C08DDE043C4B26FEA0B0000F0FF0B1A
:1017C0004FF0000A01E04FF0010AA1464FEA09205C
:1017D0000FFA80F909EB0B000FFA80F9484605F083
:1017E000CDFB009005F07EFB07460022084B05F07C
:1017F0007BFA054605F008FA0FFA80F9BAF1000FF6
:1018000002D04846BDE8F88FC9F1000000B2F9E700
:101810000000E43F08B50121080204F05BFC4FF42E
:101820000060ADF8000010208DF8030003208DF853
:1018300002006946064800F04CF94FF40061044884
:1018400000F0D2F900F04EF8FFF76CFF08BD000081
:101850000020014010B51748406820F47040154939
:1018600048600846406840F44050486000201249F3
:101870000860022004F062FF01201049C1F8AC01A9
:101880000C48406820F470400A49486008464068A7
:1018900040F4004048600C2004F050FF06488038B7
:1018A000006808B1012400E00024322004F046FF63
:1018B000204610BD00200140AC012442000024421B
:1018C00070B50026012508E0FFF7C4FF0446E001DB
:1018D00040EA6600C6B2681CC5B2082DF4DD304689
:1018E00070BD000010B50D48406820F470400B49F1
:1018F00048600846406840F440504860002008496D
:10190000086040F2EE2004F019FF01200549C1F8FB
:10191000AC010F2004F012FF10BD000000200140B8
:10192000AC0124420000244210B5FFF7DBFFFFF7B3
:10193000F9FECC2000F004F8442000F001F810BDBE
:1019400070B504461848406820F470401649486055
:101950000846406840F440504860012520E004F00B
:10196000010664106EB1002010490860022004F0E6
:10197000E5FE01200E49C1F8AC013C2004F0DEFE7A
:101980000CE00020094908603C2004F0D7FE01204B
:101990000749C1F8AC01022004F0D0FE681CC5B2B2
:1019A000082DDCDD70BD000000200140AC012442A8
:1019B000000024427047000051B18200A2F1C042F1
:1019C000126842F001038200A2F1C042136009E0F4
:1019D0008200A2F1C0421268034B1A408300A3F1B7
:1019E000C0431A6070470000FEFF0F00D0E90112EB
:1019F0001143C2681143026911434269114382696C
:101A00001143C2691143026A1143426A1143826A57
:101A10001143C26A1143026B114302689200A2F1A2
:101A2000C0421160816808290BD101688900A1F1C9
:101A3000C041096841F0400201688900A1F1C0413C
:101A40000A60416B0968426B526841EA0211426BBD
:101A5000926841EA0221426B928941EA0241426B5B
:101A6000128A41EA0251426B127D41EA0261426BE5
:101A7000926911430268521C9200A2F1C0421160A7
:101A8000C16AB1F5804F1BD1816B0968826B5268C6
:101A900041EA0211826B926841EA0221826B128A4A
:101AA00041EA0251826B127D41EA0261826B9269C6
:101AB000114302689200A2F1C042C2F8041107E08B
:101AC0006FF0704201688900A1F1C041C1F80421A2
:101AD00070472DE9F0410246002500260020002332
:101AE0000024002791F803C00CF00F0591F803C003
:101AF0000CF0100CBCF1000F03D091F802C04CEABE
:101B0000050591F800C0BCF1000F31D01468002029
:101B10002BE04FF0010C0CFA00F3B1F800C00CEA16
:101B200003069E4220D183004FF00F0C0CFA03F7FE
:101B3000BC4305FA03FC4CEA040491F803C0BCF171
:101B4000280F06D14FF0010C0CFA00FCC2F814C0AB
:101B50000AE091F803C0BCF1480F05D14FF0010C29
:101B60000CFA00FCC2F810C0401C0828D1D3146045
:101B7000B1F800C0BCF1FF0F34DD546800202EE046
:101B800000F1080C4FF0010808FA0CF3B1F800C09E
:101B90000CEA03069E4221D183004FF00F0C0CFA91
:101BA00003F7BC4305FA03FC4CEA040491F803C0B4
:101BB000BCF1280F05D100F1080C08FA0CF8C2F8A6
:101BC000148091F803C0BCF1480F07D100F1080C54
:101BD0004FF0010808FA0CF8C2F81080401C0828E1
:101BE000CED35460BDE8F0810161704710B5044662
:101BF0000723012221460948FFF710FC012107486D
:101C0000FFF76DFC00BF02210448FFF7CBFB002863
:101C1000F9D00248FFF7C2FB10BD0000003C0140B4
:101C200000BFFEE770B504460026174805884088C7
:101C300045431548808846F60401884216D112486B
:101C40008079012812D100200F4988712A2048810B
:101C50002B2088810021084603F086FF01200A49D5
:101C600088712B2048812A20888103E000210846C2
:101C700003F07AFF04F06AF9002602E003480480CA
:101C8000761CAE42FAD370BD1C0900200008006C1F
:101C900010B50446002C66D16C498871F02008808C
:101CA0004FF4A07048800846808849F2413188424C
:101CB0000BD06648808846F60401884205D0634808
:101CC000808845F2103188421AD12C205F49088162
:101CD0002A2048812B2088810846808846F6040106
:101CE000884205D05948808845F21031884206D193
:101CF0004FF4A070554908804FF4F0704880A1E07F
:101D00005248808845F21051884210D14FF430502B
:101D10004E4908814FF4285048814FF42C50888157
:101D20004FF4F07008804FF4487048808AE04748CC
:101D3000808841F6631188420DD12C2043490881E7
:101D40002B2048812A2088814FF4F07008804FF4BE
:101D50004870488076E022203C4908812020488154
:101D6000212088816EE00120384988714FF4A070ED
:101D70000880F02048800846808849F24131884236
:101D800005D03248808845F21031884207D12C2096
:101D90002E4908812A2048812B2088813FE02B484A
:101DA000808846F60401884207D12C202749088103
:101DB0002B2048812A20888131E02448808845F200
:101DC0001051884210D14FF43050204908814FF40F
:101DD000285048814FF42C5088814FF44870088077
:101DE0004FF4F07048801AE01848808841F663117B
:101DF00088420DD12C20154908812A2048812B20AA
:101E000088814FF4487008804FF4F070488006E0F5
:101E100022200E49088121204881202088810B48FA
:101E2000808846F60401884205D00848808845F23B
:101E30001031884206D14FF4F070044908804FF405
:101E4000A0704880002003F019FD10BD1C0900207F
:101E500030B503460C4615465A48808849F2413150
:101E6000884205D05748808845F21031884214D105
:101E70005449488904F064F8181204F05BF8D8B2A9
:101E800004F058F84F49888904F05AF8201204F0F9
:101E900051F8E0B204F04EF88CE04A48808845F2F0
:101EA0001051884220D14749488904F049F8181256
:101EB00004F040F843494989491C88B204F040F8CD
:101EC000D8B204F037F83F49888904F039F8201275
:101ED00004F030F83B498989491C88B204F030F895
:101EE000E0B204F027F865E03648808841F66311D7
:101EF000884228D13348807920B932480088401E72
:101F0000C01A83B22F49488904F01AF8181204F055
:101F100011F8D8B204F00EF8181204F00BF8D8B289
:101F200004F008F82749888904F00AF8201204F020
:101F300001F8E0B203F0FEFF201203F0FBFFE0B275
:101F400003F0F8FF36E01F48808846F60401884217
:101F50001DD11C488079012804D11A480088401EF0
:101F6000C01A83B21749488903F0EAFF181203F038
:101F7000E1FFD8B203F0DEFF1249888903F0E0FFE9
:101F8000201203F0D7FFE0B203F0D4FF12E00D48B7
:101F90008079012804D10B480088401EC01A83B202
:101FA00008494889194603F0DBFF0649888921461C
:101FB00003F0D6FF0348008903490880881C058088
:101FC00030BD00001C090020FE07006C2DE9FC4F0D
:101FD00005460E4617469846DDF82C9000200190E5
:101FE0002748808846F60401884229D12448807910
:101FF000012825D1AB46354621480088C01B401E2C
:1020000086B247461E480088A0EB0B00401E1FFA10
:1020100080F800201A4988712A2048812B20888165
:1020200043463A4631462846CDF80090FFF7CEFFAA
:102030000120134988712B2048812A2088811CE0C7
:10204000781B401C80B20190344614E0214628469B
:1020500003F08AFD03F07AFF4FF0000A06E009481A
:10206000A0F800900AF101001FFA80FA0198824559
:10207000F5DB601C84B24445E8DDBDE8FC8F000060
:102080001C0900200008006C00B59FB00121080267
:1020900004F010F801214FF4B47004F01BF8012093
:1020A000ADF8780010208DF87B0003208DF87A00C1
:1020B0001EA9FE48FFF70DFD4CF23370ADF8780015
:1020C00018208DF87B0003208DF87A001EA9F848AF
:1020D000FFF7FFFC4FF68070ADF8780018208DF800
:1020E0007B0003208DF87A001EA9F248FFF7F1FC6F
:1020F00041F20100ADF8780018208DF87B00032034
:102100008DF87A001EA9EC48FFF7E3FC0120089047
:10211000002009900F200A9000200B900C900D9049
:102120000E900190029003200390002004900590EF
:102130000690079006200F9000201090119010201C
:1021400012900020139015901490169017904FF451
:1021500080501890002019904FF480401A90002071
:102160001B9008A81C9001A81D900FA8FFF73EFC2B
:1021700001210620FFF720FC322004F0B9FA0020EC
:1021800003F046FBCD49888008468088FF280ADB9B
:10219000084680884FF6FF71884204D0C74880887F
:1021A000B0F5134F7ED1D32003F0CAFE03F026FB17
:1021B000C249888003F022FBC049888003F01EFBDF
:1021C000BE498880084680884FF6FF7101EA0020EA
:1021D000BA49888003F012FBB84989880843B74997
:1021E00088800846808849F2413188425AD0BF2011
:1021F00003F0A6FE03F002FBB049888003F0FEFA6C
:10220000AE49888003F0FAFAAC49888003F0F6FA08
:10221000AA498880084680884FF6FF7101EA0020AD
:10222000A649888003F0EAFAA44989880843A349AB
:1022300088800846808846F6040188427AD0D420F7
:1022400003F07EFE03F0DAFA9C49888003F0D6FAA8
:102250009A49888003F0D2FA984988800846808895
:102260004FF6FF7101EA00209449888003F0C6FA16
:10227000924989880843914988800846808845F2B8
:102280001031884256D04FF45A4003F059FE03F003
:10229000B5FA8A4988804FF45B4003F051FE03F0A1
:1022A000ADFA00E046E085498880084680884FF610
:1022B000FF7101EA0020814988804FF45C4003F0FF
:1022C0003FFE03F09BFA7D49898808437B4988805B
:1022D00008468088B0F5004F02D145F21050888042
:1022E0007648808845F21051884223D0A12003F01F
:1022F00027FE03F083FA7149888003F07FFA6F4963
:102300008880084680884FF6FF7101EA00206B49FB
:10231000888003F073FA694989880843674988808F
:102320000846808845F26171884203D141F6631006
:10233000624988806148808849F2413188427CD175
:10234000CF2003F0FDFD002003F0F4FDC12003F0D9
:10235000F1FD302003F0EEFDED2003F0F1FD6420EF
:1023600003F0E8FD032003F0E5FD122003F0E2FD99
:10237000812003F0DFFDE82003F0E2FD852003F07B
:10238000D9FD102003F0D6FD7A2003F0D3FDCB2039
:1023900003F0D6FD392003F0CDFD2C2003F0CAFD5B
:1023A000002003F0C7FD342003F0C4FD022003F039
:1023B000C1FDF72003F0C4FD202003F0BBFDEA209F
:1023C00003F0BEFD002003F0B5FD002003F0B2FDD8
:1023D000C02003F0B5FD1B2003F0ACFDC12003F0CD
:1023E000AFFD012003F0A6FDC52003F0A9FD3020BC
:1023F00003F0A0FD302003F09DFDC72003F0A0FDF9
:10240000B72003F097FD362003F09AFD482003F033
:1024100091FD3A2003F094FD552003F08BFDB1208F
:1024200003F08EFD002003F085FD1A2003F082FDED
:10243000B62003F085FD0A2000E0A5E003F07AFD58
:10244000A22003F077FDF22003F07AFD002003F0D4
:1024500071FD262003F074FD012003F06BFDE020E8
:1024600003F06EFD0F2003F065FD2A2003F062FDEE
:10247000282003F05FFD082003F05CFD0E2003F030
:1024800059FD082003F056FD542003F053FDA92008
:1024900003F050FD432003F04DFD0A2003F04AFDF8
:1024A0000F2003F047FD00200AE00000000C01406F
:1024B0000014014000180140002001401C090020C8
:1024C00003F038FD002003F035FD002003F032FD5D
:1024D000002003F02FFDE12003F032FD002003F087
:1024E00029FD152003F026FD172003F023FD07200A
:1024F00003F020FD112003F01DFD062003F01AFD5E
:102500002B2003F017FD562003F014FD3C2003F0B0
:1025100011FD052003F00EFD102003F00BFD0F2030
:1025200003F008FD3F2003F005FD3F2003F002FD0E
:102530000F2003F0FFFC2B2003F002FD002003F02E
:10254000F9FC002003F0F6FC012003F0F3FC3F202F
:1025500003F0F0FC2A2003F0F3FC002003F0EAFC77
:10256000002003F0E7FC002003F0E4FCEF2003F080
:10257000E1FC112003F0E4FC782004F0B9F82920F4
:1025800003F0DEFC03F01DB9FE48808846F6040126
:1025900088427CD1112003F0D3FC142004F0A8F869
:1025A000D02003F0CDFC072003F0C4FC422003F050
:1025B000C1FC1D2003F0BEFCD12003F0C1FC0020B3
:1025C00003F0B8FC1A2003F0B5FC092003F0B2FCBC
:1025D000D22003F0B5FC012003F0ACFC222003F074
:1025E000A9FCC02003F0ACFC102003F0A3FC3B20AE
:1025F00003F0A0FC002003F09DFC022003F09AFCF5
:10260000112003F097FCC52003F09AFC032003F08F
:1026100091FCC82003F094FC002003F08BFC2520E3
:1026200003F088FC212003F085FC052003F082FCE8
:10263000002003F07FFC0A2003F07CFC652003F0FF
:1026400079FC252003F076FC772003F073FC502002
:1026500003F070FC0F2003F06DFC002003F06AFC17
:10266000F82003F06DFC012003F064FCFE2003F071
:1026700067FC002003F05EFC022003F05BFC2020DE
:1026800003F05EFC362003F05BFC082000E02CE049
:1026900003F050FC3A2003F053FC552003F04AFCB1
:1026A0002B2003F04DFC002003F044FC002003F03D
:1026B00041FC012003F03EFC3F2003F03BFC2A20BC
:1026C00003F03EFC002003F035FC002003F032FC58
:1026D000012003F02FFCDF2003F02CFC782004F015
:1026E00007F8292003F02CFC4CE7A648808845F227
:1026F0001031884240F07C87ED2003F021FC01205E
:1027000003F018FCFE2003F015FCEE2003F018FC8B
:10271000DE2003F00FFC212003F00CFCF12003F07D
:102720000FFC012003F006FCDF2003F009FC102061
:1027300003F000FCC42003F003FC8F2003F0FAFB3D
:10274000C62003F0FDFB002003F0F4FBE22003F0C1
:10275000F1FBE22003F0EEFBE22003F0EBFBBF20F5
:1027600003F0EEFBAA2003F0E5FBB02003F0E8FB4A
:102770000D2003F0DFFB002003F0DCFB0D2003F055
:10278000D9FB002003F0D6FB112003F0D3FB00207F
:1027900003F0D0FB192003F0CDFB002003F0CAFBAF
:1027A000212003F0C7FB002003F0C4FB2D2003F021
:1027B000C1FB002003F0BEFB3D2003F0BBFB00206B
:1027C00003F0B8FB5D2003F0B5FB002003F0B2FB83
:1027D0005D2003F0AFFB002003F0ACFBB12003F061
:1027E000AFFB802003F0A6FB002003F0A3FB8B20AF
:1027F00003F0A0FB002003F09DFB962003F09AFB62
:10280000002003F097FBB22003F09AFB002003F0B6
:1028100091FB002003F08EFB022003F08BFB0020D5
:1028200003F088FB032003F085FB002003F082FB0C
:10283000B32003F085FB002003F07CFB002003F0B5
:1028400079FB002003F076FB002003F073FB0020EF
:1028500003F070FB002003F06DFB002003F06AFB27
:10286000002003F067FB002003F064FB002003F06E
:1028700061FB002003F05EFB002003F05BFB002007
:1028800003F058FB002003F055FB002003F052FB3F
:10289000002003F04FFB002003F04CFB002003F06E
:1028A00049FB002003F046FB002003F043FB00201F
:1028B00003F040FB002003F03DFB002003F03AFB57
:1028C000002003F037FBB42003F03AFB8B2003F029
:1028D00031FB002003F02EFB962003F02BFB0020A1
:1028E00003F028FBA12003F025FB002003F022FBCE
:1028F000B52003F025FB022003F01CFB002003F0B1
:1029000019FB032003F016FB002003F013FB042047
:1029100003F010FB002003F00DFBB62003F010FBCA
:10292000002003F007FB002003F004FBB72003F0B6
:1029300007FB002003F0FEFA002003F0FBFA3F2023
:1029400003F0F8FA002003F0F5FA5E2003F0F2FA43
:10295000002003F0EFFA642003F0ECFA002003F00B
:10296000E9FA8C2003F0E6FA002003F0E3FAAC2049
:1029700003F0E0FA002003F0DDFADC2003F0DAFADD
:10298000002001E01C09002003F0D4FA702003F0BD
:10299000D1FA002003F0CEFA902003F0CBFA002009
:1029A00003F0C8FAEB2003F0C5FA002003F0C2FAE6
:1029B000DC2003F0BFFA002003F0BCFAB82003F0DB
:1029C000BFFA002003F0B6FA002003F0B3FA0020AB
:1029D00003F0B0FA002003F0ADFA002003F0AAFAE9
:1029E000002003F0A7FA002003F0A4FA002003F06F
:1029F000A1FABA2003F0A4FA242003F09BFA0020E5
:102A000003F098FA002003F095FA002003F092FA00
:102A1000C12003F095FA202003F08CFA002003F087
:102A200089FA542003F086FA002003F083FAFF208D
:102A300003F080FA002003F07DFAC22003F080FA50
:102A40000A2003F077FA002003F074FA042003F060
:102A500071FA002003F06EFAC32003F071FA3C20F3
:102A600003F068FA002003F065FA3A2003F062FAF6
:102A7000002003F05FFA392003F05CFA002003F035
:102A800059FA372003F056FA002003F053FA3C209D
:102A900003F050FA002003F04DFA362003F04AFA12
:102AA000002003F047FA322003F044FA002003F03C
:102AB00041FA2F2003F03EFA002003F03BFA2C20CD
:102AC00003F038FA002003F035FA292003F032FA37
:102AD000002003F02FFA262003F02CFA002003F048
:102AE00029FA242003F026FA002003F023FA2420F8
:102AF00003F020FA002003F01DFA232003F01AFA55
:102B0000002003F017FA3C2003F014FA002003F031
:102B100011FA362003F00EFA002003F00BFA3220EF
:102B200003F008FA002003F005FA2F2003F002FA60
:102B3000002003F0FFF92C2003F0FCF9002003F043
:102B4000F9F9292003F0F6F9002003F0F3F9262023
:102B500003F0F0F9002003F0EDF9242003F0EAF986
:102B6000002003F0E7F9242003F0E4F9002003F04B
:102B7000E1F9232003F0DEF9002003F0DBF9C420A3
:102B800003F0DEF9622003F0D5F9002003F0D2F95A
:102B9000052003F0CFF9002003F0CCF9842003F0E6
:102BA000C9F9002003F0C6F9F02003F0C3F90020B2
:102BB00003F0C0F9182003F0BDF9002003F0BAF9C2
:102BC000A42003F0B7F9002003F0B4F9182003F0B3
:102BD000B1F9002003F0AEF9502003F0ABF900206A
:102BE00003F0A8F90C2003F0A5F9002003F0A2F9E6
:102BF000172003F09FF9002003F09CF9952003F0C3
:102C000099F9002003F096F9F32003F093F90020DE
:102C100003F090F9E62003F08DF9002003F08AF923
:102C2000C52003F08DF9322003F084F9002003F071
:102C300081F9442003F07EF9002003F07BF9652040
:102C400003F078F9002003F075F9762003F072F9AB
:102C5000002003F06FF9882003F06CF9002003F0E6
:102C600069F9C62003F06CF9202003F063F9002015
:102C700003F060F9172003F05DF9002003F05AF922
:102C8000012003F057F9002003F054F9C72003F0A6
:102C900057F9002003F04EF9002003F04BF9002013
:102CA00003F048F9002003F045F9C82003F048F983
:102CB000002003F03FF9002003F03CF9002003F06E
:102CC00039F9002003F036F9C92003F039F9002062
:102CD00003F030F9002003F02DF9002003F02AF969
:102CE000002003F027F9002003F024F9002003F06E
:102CF00021F9002003F01EF9002003F01BF9002049
:102D000003F018F9002003F015F9002003F012F980
:102D1000002003F00FF9002003F00CF9002003F06D
:102D200009F9002003F006F9002003F003F9E02080
:102D300003F006F9162003F0FDF8002003F0FAF87E
:102D40001C2003F0F7F8002003F0F4F8212003F032
:102D5000F1F8002003F0EEF8362003F0EBF8002045
:102D600003F0E8F8462003F0E5F8002003F0E2F86D
:102D7000522003F0DFF8002003F0DCF8642003F0B9
:102D8000D9F8002003F0D6F87A2003F0D3F8002019
:102D900003F0D0F88B2003F0CDF8002003F0CAF840
:102DA000992003F0C7F8002003F0C4F8A82003F02E
:102DB000C1F8002003F0BEF8B92003F0BBF80020F2
:102DC00003F0B8F8C42003F0B5F8002003F0B2F81F
:102DD000CA2003F0AFF8002003F0ACF8D22003F0D3
:102DE000A9F8002003F0A6F8D92003F0A3F80020EA
:102DF00003F0A0F8E02003F09DF8002003F09AF81B
:102E0000F32003F097F8002003F094F8E12003F09A
:102E100097F8162003F08EF8002003F08BF81C20A2
:102E200003F088F8002003F085F8222003F082F8F0
:102E3000002003F07FF8362003F07CF8002003F038
:102E400079F8452003F076F8002003F073F852205B
:102E500003F070F8002003F06DF8642003F06AF8C6
:102E6000002003F067F87A2003F064F8002003F0F4
:102E700061F88B2003F05EF8002003F05BF89920E6
:102E800003F058F8002003F055F8A82003F052F89A
:102E9000002003F04FF8B92003F04CF8002003F0B5
:102EA00049F8C42003F046F8002003F043F8CA2094
:102EB00003F040F8002003F03DF8D22003F03AF888
:102EC000002003F037F8D82003F034F8002003F096
:102ED00031F8E02003F02EF8002003F02BF8F32067
:102EE00003F028F8002003F025F8E22003F028F88A
:102EF000052003F01FF8002003F01CF80B2003F05E
:102F000019F8002003F016F81B2003F013F8002036
:102F100003F010F8342003F00DF8002003F00AF855
:102F2000442003F007F8002003F004F84F2003F0DA
:102F300001F8002002F0FEFF612002F0FBFF0020FC
:102F400002F0F8FF792002F0F5FF002002F0F2FF16
:102F5000882002F0EFFF002002F0ECFF972002F043
:102F6000E9FF002002F0E6FFA62002F0E3FF0020C8
:102F700002F0E0FFB72002F0DDFF002002F0DAFFF0
:102F8000C22002F0D7FF002002F0D4FFC72002F0D9
:102F9000D1FF002002F0CEFFD12002F0CBFF0020B5
:102FA00002F0C8FFD62002F0C5FF002002F0C2FFE9
:102FB000DD2002F0BFFF002002F0BCFFF32002F092
:102FC000B9FF002002F0B6FFE32002F0B9FF0520B0
:102FD00002F0B0FF002002F0ADFF0A2002F0AAFFCD
:102FE000002002F0A7FF1C2002F0A4FF002002F046
:102FF000A1FF332002F09EFF002002F09BFF44203F
:1030000002F098FF002002F095FF502002F092FF9E
:10301000002002F08FFF622002F08CFF002002F0FF
:1030200089FF782002F086FF002002F083FF8820CD
:1030300002F080FF002002F07DFF972002F07AFF6F
:10304000002002F077FFA62002F074FF002002F0BB
:1030500071FFB72002F06EFF002002F06BFFC2206C
:1030600002F068FF002002F065FFC72002F062FF57
:10307000002002F05FFFD12002F05CFF002002F090
:1030800059FFD52002F056FF002002F053FFDD204B
:1030900002F050FF002002F04DFFF32002F04AFF43
:1030A000002002F047FFE42002F04AFF012002F076
:1030B00041FF002002F03EFF012002F03BFF002014
:1030C00002F038FF022002F035FF002002F032FF4C
:1030D0002A2002F02FFF002002F02CFF3C2002F0FB
:1030E00029FF002002F026FF4B2002F023FF0020E2
:1030F00002F020FF5D2002F01DFF002002F01AFF09
:10310000742002F017FF002002F014FF842002F068
:1031100011FF002002F00EFF932002F00BFF0020B1
:1031200002F008FFA22002F005FF002002F002FFDB
:10313000B32002F0FFFE002002F0FCFEBE2002F0F1
:10314000F9FE002002F0F6FEC42002F0F3FE00209B
:1031500002F0F0FECD2002F0EDFE002002F0EAFECB
:10316000D32002F0E7FE002002F0E4FEDD2002F0B2
:10317000E1FE002002F0DEFEF32002F0DBFE002084
:1031800002F0D8FEE52002F0DBFE002002F0D2FEC5
:10319000002002F0CFFE002002F0CCFE002002F062
:1031A000C9FE022002F0C6FE002002F0C3FE292064
:1031B00002F0C0FE002002F0BDFE3C2002F0BAFE8C
:1031C000002002F0B7FE4B2002F0B4FE002002F017
:1031D000B1FE5D2002F0AEFE002002F0ABFE7420D6
:1031E00002F0A8FE002002F0A5FE842002F0A2FE5C
:1031F000002002F09FFE932002F09CFE002002F0CF
:1032000099FEA22002F096FE002002F093FEB32069
:1032100002F090FE002002F08DFEBE2002F08AFE39
:10322000002002F087FEC42002F084FE002002F09D
:1032300081FECD2002F07EFE002002F07BFED32036
:1032400002F078FE002002F075FEDC2002F072FE33
:10325000002002F06FFEF32002F06CFE002002F06E
:1032600069FEE62002F06CFE112002F063FE0020F1
:1032700002F060FE342002F05DFE002002F05AFEF3
:10328000562002F057FE002002F054FE762002F095
:1032900051FE002002F04EFE772002F04BFE00208F
:1032A00002F048FE662002F045FE002002F042FED9
:1032B000882002F03FFE002002F03CFE992002F040
:1032C00039FE002002F036FEBB2002F033FE002063
:1032D00002F030FE992002F02DFE002002F02AFEBE
:1032E000662002F027FE002002F024FE552002F0A6
:1032F00021FE002002F01EFE552002F01BFE0020E1
:1033000002F018FE452002F015FE002002F012FE29
:10331000432002F00FFE002002F00CFE442002F0D9
:1033200009FE002002F006FEE72002F009FE32202E
:1033300002F000FE002002F0FDFD552002F0FAFD33
:10334000002002F0F7FD762002F0F4FD002002F0EC
:10335000F1FD662002F0EEFD002002F0EBFD67209B
:1033600002F0E8FD002002F0E5FD672002F0E2FD3A
:10337000002002F0DFFD872002F0DCFD002002F0DB
:10338000D9FD992002F0D6FD002002F0D3FDBB202C
:1033900002F0D0FD002002F0CDFD992002F0CAFD20
:1033A000002002F0C7FD772002F0C4FD002002F0EB
:1033B000C1FD442002F0BEFD002002F0BBFD5620FE
:1033C00002F0B8FD002002F0B5FD232002F0B2FDAE
:1033D000002002F0AFFD332002F0ACFD002002F02F
:1033E000A9FD452002F0A6FD002002F0A3FDE82083
:1033F00002F0A6FD002002F09DFD002002F09AFDE3
:10340000992002F097FD002002F094FD872002F041
:1034100091FD002002F08EFD882002F08BFD00203F
:1034200002F088FD772002F085FD002002F082FD89
:10343000662002F07FFD002002F07CFD882002F073
:1034400079FD002002F076FDAA2002F073FD002035
:1034500002F070FDBB2002F06DFD002002F06AFD5D
:10346000992002F067FD002002F064FD662002F062
:1034700061FD002002F05EFD552002F05BFD0020A2
:1034800002F058FD552002F055FD002002F052FDDB
:10349000442002F04FFD002002F04CFD442002F0D9
:1034A00049FD002002F046FD552002F043FD0020BA
:1034B00002F040FDE92002F043FDAA2002F03AFDAF
:1034C000002002F037FD002002F034FD002002F061
:1034D00031FD002002F034FDAA2002F02BFDCF20A8
:1034E00002F02EFD002002F025FD002002F022FD5A
:1034F000002002F01FFD002002F01CFD002002F061
:1035000019FD002002F016FD002002F013FD00203E
:1035100002F010FD002002F00DFD002002F00AFD77
:10352000002002F007FD002002F004FD002002F060
:1035300001FD002002F0FEFC002002F0FBFC002058
:1035400002F0F8FC002002F0F5FCF02002F0F8FC9C
:10355000002002F0EFFC502002F0ECFC002002F012
:10356000E9FC002002F0E6FC002002F0E3FCF3207E
:1035700002F0E6FC002002F0DDFCF92002F0E0FCA5
:10358000062002F0D7FC102002F0D4FC292002F023
:10359000D1FC002002F0CEFC3A2002F0D1FC5520F4
:1035A00002F0C8FC112002F0CBFC642003F0A0F86C
:1035B000292002F0C5FC352002F0C2FC002002F0F8
:1035C000B9FC512002F0BCFCFF2002F0B3FC5320F8
:1035D00002F0B6FC2C2002F0ADFC552002F0B0FC4D
:1035E000822002F0A7FC2C2002F0AAFC02F0E9B82D
:1035F000FE48808845F2105188427DD155214FF414
:10360000704002F0ADFCAA214FF2010002F0A8FCCC
:1036100052214FF2020002F0A3FC08214FF20300F6
:1036200002F09EFC01214FF2040002F099FC0D21F2
:103630004FF4304002F094FC0D214BF2010002F0F7
:103640008FFC0D214BF2020002F08AFC34214FF472
:10365000364002F085FC34214BF2016002F080FC20
:1036600034214BF2026002F07BFC0D214FF431401B
:1036700002F076FC0D214BF2011002F071FC0D21DD
:103680004BF2021002F06CFC34214FF4374002F090
:1036900067FC34214BF2017002F062FC34214BF2E2
:1036A000027002F05DFC00214FF4324002F058FC41
:1036B00000214BF2012002F053FC00214BF20220CA
:1036C00002F04EFC24214FF4384002F049FC242142
:1036D0004BF6010002F044FC24214BF6020002F0FC
:1036E0003FFC01214FF43F4002F03AFC0F214FF420
:1036F000334002F035FC00E0FDE30F214BF20130D6
:1037000002F02EFC0F214BF2023002F029FC342192
:103710004FF4394002F024FC34214BF6011002F042
:103720001FFC34214BF6021002F01AFC08214FF462
:10373000354002F015FC08214BF2015002F010FC5C
:1037400008214BF2025002F00BFC03214FF44240DF
:1037500002F006FC24214FF43A4002F001FC24213F
:103760004BF6012002F0FCFB24214BF6022002F074
:10377000F7FB00214FF43C4002F0F2FB78214BF6BE
:10378000014002F0EDFB00214BF6024002F0E8FBA5
:1037900000214FF43D4002F0E3FB78214BF601504D
:1037A00002F0DEFB00214BF6025002F0D9FB0021B3
:1037B0004FF43E4002F0D4FB64214BF6016002F06E
:1037C000CFFB00214FF4514002F0CAFB33214DF2F0
:1037D000011002F0C5FB00214DF2021002F0C0FB07
:1037E00034214DF2031002F0BBFB00214DF2041016
:1037F00002F0B6FB3A214DF2051002F0B1FB0021B8
:103800004DF2061002F0ACFB4A214DF2071002F017
:10381000A7FB00214DF2081002F0A2FB5C214DF243
:10382000091002F09DFB00214DF20A1002F098FBF6
:1038300081214DF20B1002F093FB00214DF20C1090
:1038400002F08EFBA6214DF20D1002F089FB002143
:103850004DF20E1002F084FBE5214DF20F1002F044
:103860007FFB01214DF2101002F07AFB13214DF283
:10387000111002F075FB01214DF2121002F070FBE5
:1038800054214DF2131002F06BFB01214DF2141084
:1038900002F066FB82214DF2151002F061FB01215E
:1038A0004DF2161002F05CFBCA214DF2171002F027
:1038B00057FB02214DF2181002F052FB00214DF28D
:1038C000191002F04DFB02214DF21A1002F048FBD4
:1038D00001214DF21B1002F043FB02214DF21C109E
:1038E00002F03EFB34214DF21D1002F039FB0221A3
:1038F0004DF21E1002F034FB67214DF21F1002F052
:103900002FFB02214DF2201002F02AFB84214DF200
:10391000211002F025FB02214DF2221002F020FBC3
:10392000A4214DF2231002F01BFB02214DF22410C2
:1039300002F016FBB7214DF2251002F011FB022117
:103940004DF2261002F00CFBCF214DF2271002F0B1
:1039500007FB02214DF2281002F002FBDE214DF29E
:10396000291002F0FDFA02214DF22A1002F0F8FAB5
:10397000F2214DF22B1002F0F3FA02214DF22C103D
:1039800002F0EEFAFE214DF22D1002F0E9FA0321C9
:103990004DF22E1002F0E4FA10214DF22F1002F039
:1039A000DFFA03214DF2301002F0DAFA33214DF242
:1039B000311002F0D5FA03214DF2321002F0D0FAA4
:1039C0006D214DF2331002F0CBFA00214FF452403A
:1039D00002F0C6FA33214DF2012002F0C1FA0021B3
:1039E0004DF2022002F0BCFA342101E01C09002053
:1039F0004DF2032002F0B4FA00214DF2042002F04F
:103A0000AFFA3A214DF2052002F0AAFA00214DF258
:103A1000062002F0A5FA4A214DF2072002F0A0FA92
:103A200000214DF2082002F09BFA5C214DF20920A2
:103A300002F096FA00214DF20A2002F091FA81215B
:103A40004DF20B2002F08CFA00214DF20C2002F016
:103A500087FAA6214DF20D2002F082FA00214DF2E4
:103A60000E2002F07DFAE5214DF20F2002F078FAE7
:103A700001214DF2102002F073FA13214DF21120B2
:103A800002F06EFA01214DF2122002F069FA54217F
:103A90004DF2132002F064FA01214DF2142002F0DD
:103AA0005FFA82214DF2152002F05AFA01214DF2FF
:103AB000162002F055FACA214DF2172002F050FAF2
:103AC00002214DF2182002F04BFA00214DF219208C
:103AD00002F046FA02214DF21A2002F041FA0121C9
:103AE0004DF21B2002F03CFA02214DF21C2002F0A4
:103AF00037FA34214DF21D2002F032FA02214DF244
:103B00001E2002F02DFA67214DF21F2002F028FA44
:103B100002214DF2202002F023FA84214DF22120CF
:103B200002F01EFA02214DF2222002F019FAA4211D
:103B30004DF2232002F014FA02214DF2242002F06B
:103B40000FFAB7214DF2252002F00AFA02214DF2B8
:103B5000262002F005FACF214DF2272002F000FACC
:103B600002214DF2282002F0FBF9DE214DF229203E
:103B700002F0F6F902214DF22A2002F0F1F9F221C9
:103B80004DF22B2002F0ECF902214DF22C2002F034
:103B9000E7F9FE214DF22D2002F0E2F903214DF26A
:103BA0002E2002F0DDF910214DF22F2002F0D8F97D
:103BB00003214DF2302002F0D3F933214DF23120B0
:103BC00002F0CEF903214DF2322002F0C9F96D2145
:103BD0004DF2332002F0C4F900214FF4534002F0BB
:103BE000BFF933214DF2013002F0BAF900214DF254
:103BF000023002F0B5F934214DF2033002F0B0F991
:103C000000214DF2043002F0ABF93A214DF20530BB
:103C100002F0A6F900214DF2063002F0A1F94A2186
:103C20004DF2073002F09CF900214DF2083002F00D
:103C300097F95C214DF2093002F092F900214DF222
:103C40000A3002F08DF981214DF20B3002F088F933
:103C500000214DF20C3002F083F9A6214DF20D3017
:103C600002F07EF900214DF20E3002F079F9E521E3
:103C70004DF20F3002F074F901214DF2103002F0D4
:103C80006FF913214DF2113002F06AF901214DF262
:103C9000123002F065F954214DF2133002F060F950
:103CA00001214DF2143002F05BF982214DF2153002
:103CB00002F056F901214DF2163002F051F9CA21F5
:103CC0004DF2173002F04CF902214DF2183002F09B
:103CD00047F900214DF2193002F042F902214DF26C
:103CE0001A3002F03DF901214DF21B3002F038F993
:103CF00002214DF21C3002F033F934214DF21D3017
:103D000002F02EF902214DF21E3002F029F967214E
:103D10004DF21F3002F024F902214DF2203002F062
:103D20001FF984214DF2213002F01AF902214DF2DF
:103D3000223002F015F9A4214DF2233002F010F9DF
:103D400002214DF2243002F00BF9B7214DF225305B
:103D500002F006F902214DF2263002F001F9CF21DE
:103D60004DF2273002F0FCF802214DF2283002F02B
:103D7000F7F8DE214DF2293002F0F2F802214DF27F
:103D80002A3002F0EDF8F2214DF22B3002F0E8F883
:103D900002214DF22C3002F0E3F8FE214DF22D30DD
:103DA00002F0DEF803214DF22E3002F0D9F8102196
:103DB0004DF22F3002F0D4F803214DF2303002F0F2
:103DC000CFF833214DF2313002F0CAF803214DF221
:103DD000323002F0C5F86D214DF2333002F0C0F8F8
:103DE00000214FF4544002F0BBF833214DF2014062
:103DF00002F0B6F800214DF2024002F0B1F8342191
:103E00004DF2034002F0ACF800214DF2044002F004
:103E1000A7F83A214DF2054002F0A2F800214DF238
:103E2000064002F09DF84A214DF2074002F098F852
:103E300000214DF2084002F093F85C214DF2094058
:103E400002F08EF800214DF20A4002F089F881213B
:103E50004DF20B4002F084F800214DF20C4002F0CC
:103E60007FF8A6214DF20D4002F07AF800214DF2C4
:103E70000E4002F075F8E5214DF20F4002F070F8A7
:103E800001214DF2104002F06BF813214DF2114068
:103E900002F066F801214DF2124002F061F854215F
:103EA0004DF2134002F05CF801214DF2144002F093
:103EB00057F882214DF2154002F052F801214DF2DF
:103EC000164002F04DF8CA214DF2174002F048F8B2
:103ED00002214DF2184002F043F800214DF2194042
:103EE00002F03EF802214DF21A4002F039F80121A9
:103EF0004DF21B4000E006E302F032F802214DF2E1
:103F00001C4002F02DF834214DF21D4002F028F83B
:103F100002214DF21E4002F023F867214DF21F40AE
:103F200002F01EF802214DF2204002F019F884211F
:103F30004DF2214002F014F802214DF2224002F02D
:103F40000FF8A4214DF2234002F00AF802214DF2AD
:103F5000244002F005F8B7214DF2254002F000F8A8
:103F600002214DF2264001F0FBFFCF214DF2274008
:103F700001F0F6FF02214DF2284001F0F1FFDE21B1
:103F80004DF2294001F0ECFF02214DF22A4001F0F0
:103F9000E7FFF2214DF22B4001F0E2FF02214DF24A
:103FA0002C4001F0DDFFFE214DF22D4001F0D8FF45
:103FB00003214DF22E4001F0D3FF10214DF22F408E
:103FC00001F0CEFF03214DF2304001F0C9FF332153
:103FD0004DF2314001F0C4FF03214DF2324001F0B7
:103FE000BFFF6D214DF2334001F0BAFF00214FF4C5
:103FF000554001F0B5FF33214DF2015001F0B0FF03
:1040000000214DF2025001F0ABFF34214DF203507C
:1040100001F0A6FF00214DF2045001F0A1FF3A216A
:104020004DF2055001F09CFF00214DF2065001F0C9
:1040300097FF4A214DF2075001F092FF00214DF207
:10404000085001F08DFF5C214DF2095001F088FF0E
:1040500000214DF20A5001F083FF81214DF20B50F7
:1040600001F07EFF00214DF20C5001F079FFA621F6
:104070004DF20D5001F074FF00214DF20E5001F091
:104080006FFFE5214DF20F5001F06AFF01214DF263
:10409000105001F065FF13214DF2115001F060FF47
:1040A00001214DF2125001F05BFF54214DF21350EB
:1040B00001F056FF01214DF2145001F051FF822111
:1040C0004DF2155001F04CFF01214DF2165001F058
:1040D00047FFCA214DF2175001F042FF02214DF275
:1040E000185001F03DFF00214DF2195001F038FF4A
:1040F00002214DF21A5001F033FF01214DF21B5005
:1041000001F02EFF02214DF21C5001F029FF342155
:104110004DF21D5001F024FF02214DF21E5001F01E
:104120001FFF67214DF21F5001F01AFF02214DF2CF
:10413000205001F015FF84214DF2215001F010FFB5
:1041400002214DF2225001F00BFFA4214DF2235029
:1041500001F006FF02214DF2245001F001FFB721CA
:104160004DF2255001F0FCFE02214DF2265001F0E7
:10417000F7FECF214DF2275001F0F2FE02214DF261
:10418000285001F0EDFEDE214DF2295001F0E8FE4D
:1041900002214DF22A5001F0E3FEF2214DF22B50A4
:1041A00001F0DEFE02214DF22C5001F0D9FEFE217D
:1041B0004DF22D5001F0D4FE03214DF22E5001F0AE
:1041C000CFFE10214DF22F5001F0CAFE03214DF217
:1041D000305001F0C5FE33214DF2315001F0C0FEE8
:1041E00003214DF2325001F0BBFE6D214DF23350F0
:1041F00001F0B6FE00214FF4564001F0B1FE33212C
:104200004DF2016001F0ACFE00214DF2026001F0C0
:10421000A7FE34214DF2036001F0A2FE00214DF211
:10422000046001F09DFE3A214DF2056001F098FE18
:1042300000214DF2066001F093FE4A214DF2076025
:1042400001F08EFE00214DF2086001F089FE5C2134
:104250004DF2096001F084FE00214DF20A6001F088
:104260007FFE81214DF20B6001F07AFE00214DF2BC
:104270000C6001F075FEA6214DF20D6001F070FE9C
:1042800000214DF20E6001F06BFEE5214DF20F6052
:1042900001F066FE01214DF2106001F061FE132174
:1042A0004DF2116001F05CFE01214DF2126001F04F
:1042B00057FE54214DF2136001F052FE01214DF2E0
:1042C000146001F04DFE82214DF2156001F048FEB0
:1042D00001214DF2166001F043FECA214DF2176034
:1042E00001F03EFE02214DF2186001F039FE00217E
:1042F0004DF2196001F034FE02214DF21A6001F016
:104300002FFE01214DF21B6001F02AFE02214DF229
:104310001C6001F025FE34214DF21D6001F020FEED
:1043200002214DF21E6001F01BFE67214DF21F605D
:1043300001F016FE02214DF2206001F011FE8421F1
:104340004DF2216001F00CFE02214DF2226001F0DD
:1043500007FEA4214DF2236001F002FE02214DF27E
:10436000246001F0FDFDB7214DF2256001F0F8FD5C
:1043700002214DF2266001F0F3FDCF214DF22760BE
:1043800001F0EEFD02214DF2286001F0E9FDDE2191
:104390004DF2296001F0E4FD02214DF22A6001F0A6
:1043A000DFFDF2214DF22B6001F0DAFD02214DF22A
:1043B0002C6001F0D5FDFE214DF22D6001F0D0FD05
:1043C00003214DF22E6001F0CBFD10214DF22F6044
:1043D00001F0C6FD03214DF2306001F0C1FD332133
:1043E0004DF2316001F0BCFD03214DF2326001F06D
:1043F000B7FD6D214DF2336001F0B2FD55214FF450
:10440000704001F0ADFDAA214FF2010001F0A8FDBE
:1044100052214FF2020001F0A3FD08214FF20300E8
:1044200001F09EFD00214FF2040001F099FDCC2126
:104430004FF4314001F094FD00214BF2011001F0E6
:104440008FFD05214FF4364001F08AFD70214FF4B5
:10445000374001F085FD70214BF2017001F080FDC5
:1044600001214FF4384001F07BFD03214BF60100A0
:1044700001F076FD03214BF6020001F071FD0321EE
:104480004BF6030001F06CFD02214FF43C4001F0BB
:1044900067FD00214BF6014001F062FD00214BF663
:1044A000024001F05DFDD0214FF4494001F058FD7C
:1044B00002214CF6011001F053FD50214CF6021080
:1044C00001F04EFD50214CF6031001F049FD502142
:1044D0004CF6041001F044FD00214FF4545001F05B
:1044E0003FFD55214FF4685001F03AFD4FF48850DC
:1044F00001F026FD782002F021F94FF4245001F05C
:104500001FFD01F05EB9FE48808849F225318842DE
:104510007ED147F6F001E52001F022FD4FF48071D5
:10452000012001F01DFD4FF4E061022001F018FDB3
:1045300041F23001032001F013FD0021042001F0BD
:104540000FFD40F20221082001F00AFD00210920A0
:1045500001F006FD00210A2001F002FD00210C20DF
:1045600001F0FEFC00210D2001F0FAFC00210F20DB
:1045700001F0F6FC0021102001F0F2FC07211120CF
:1045800001F0EEFC0021122001F0EAFC00211320D2
:1045900001F0E6FC0021072001F0E2FC41F290610D
:1045A000102001F0DDFC40F22721112001F0D8FCA1
:1045B0009D21122001F0D4FC4FF4C851132001F0CA
:1045C000CFFC2521292001F0CBFC0D212B2001F06F
:1045D000C7FC0721302001F0C3FC40F20331312039
:1045E00001F0BEFC0321322001F0BAFC40F20621AA
:1045F000352001F0B5FC0821362001F0B1FC40F275
:104600000641372001F0ACFC4FF44171382000E046
:1046100057E001F0A5FC0721392001F0A1FC40F290
:1046200002613C2001F09CFC08213D2001F098FC37
:104630000021502001F094FCEF21512001F090FC6A
:104640000021522001F08CFC40F23F11532001F078
:1046500087FC4FF42741602001F082FC012161209A
:1046600001F07EFC00216A2001F07AFC002180200C
:1046700001F076FC0021812001F072FC00218220F3
:1046800001F06EFC0021832001F06AFC00218420EF
:1046900001F066FC0021852001F062FC10219020D1
:1046A00001F05EFC4FF4C061922001F059FC40F231
:1046B0003311072001F054FC2221002001F050FCAE
:1046C0001FE78F48808849F2283188427ED141F225
:1046D0008F01EC2001F044FC41F23421EF2001F085
:1046E0003FFC4FF48071012001F03AFC4FF4E0618F
:1046F000022001F035FC41F23001032001F030FCD2
:104700000021042001F02CFC40F20221082001F0DD
:1047100027FC0021092001F023FC00210A2001F0E0
:104720001FFC01210C2001F01BFC00210D2001F0D9
:1047300017FC00210F2001F013FC0021102001F0D4
:104740000FFC0721112001F00BFC0021122001F0C9
:1047500007FC0021132001F003FC0121072001F0D8
:10476000FFFB322001F0C4FF41F29041102001F024
:10477000F7FB40F22721112001F0F2FB322001F07B
:10478000B7FF8A21122001F0EBFB322001F0B0FFCD
:104790004FF4D051132001F0E3FB0621292001F052
:1047A000DFFB0D212B2001F0DBFB322001F0A0FF0D
:1047B0000021202001F0D4FB0021212001F0D0FBBA
:1047C000322001F095FF0021302000E074E001F07C
:1047D000C7FB40F20461312001F0C2FB40F2053119
:1047E000322001F0BDFB0021352001F0B9FB40F67D
:1047F0000941362001F0B4FB4FF40171372001F07C
:10480000AFFB40F20131382001F0AAFB40F2077102
:10481000392001F0A5FB00213C2001F0A1FB40F66E
:104820000A213D2001F09CFB322001F061FF0021B4
:10483000502001F095FBEF21512001F091FB002168
:10484000522001F08DFB40F23F11532001F088FB14
:104850004FF42741602001F083FB0121612001F02A
:104860007FFB00216A2001F07BFB0021802001F00A
:1048700077FB0021812001F073FB0021822001F0F1
:104880006FFB0021832001F06BFB0021842001F0ED
:1048900067FB0021852001F063FB1021902001F0CF
:1048A0005FFB4FF4C061922001F05AFB40F23311DC
:1048B000072001F055FB24E61148808849F2203199
:1048C00088427DD10021084601F04AFB4FF48071F7
:1048D000012001F045FB4FF4E061022001F040FBB4
:1048E00041F23001032001F03BFB0021042001F0E4
:1048F00037FB40F20221082001F032FB002101E0E9
:104900001C090020092001F02BFB00210A2001F0E6
:1049100027FB01210C2001F023FB00210D2001F0D9
:104920001FFB00210F2001F01BFB322001F0E0FEF5
:1049300040F20111072001F013FB322001F0D8FEF4
:104940004FF48651102001F00BFB0721112001F0DC
:1049500007FB4FF48871122001F002FB4FF4306125
:10496000132001F0FDFA0021292001F0F9FA44F2A8
:1049700010012B2001F0F4FA0021502001F0F0FA90
:10498000EF21512001F0ECFA0021522001F0E8FA69
:1049900040F23F11532001F0E3FA4FF41C51602024
:1049A00001F0DEFA0121612001F0DAFA00216A202B
:1049B00001F0D6FA0021802001F0D2FA002100E0B7
:1049C00031E0812001F0CCFA0021822001F0C8FA08
:1049D0000021832001F0C4FA0021842001F0C0FAF4
:1049E0000021852001F0BCFA1021902001F0B8FAD6
:1049F0000021922001F0B4FA0121932001F0B0FAD5
:104A00004FF48871952001F0ABFA0021972001F056
:104A1000A7FA0021982001F0A3FA40F273110720B1
:104A200001F09EFA6DE5FE48808849F231318842F6
:104A30007DD141F21401E72001F092FA4FF4807128
:104A4000012001F08DFA4FF40071022001F088FA84
:104A500041F23801032001F083FA40F202210820DC
:104A600001F07EFA0021092001F07AFA00210A20E3
:104A700001F076FA00210C2001F072FA00210D20DD
:104A800001F06EFA00210F2001F06AFA00211020D7
:104A900001F066FA0721112001F062FA00211220CC
:104AA00001F05EFA0021132001F05AFAC82001F04B
:104AB0001FFE41F29061102001F052FA40F22721CE
:104AC000112001F04DFA322001F012FE0C211220CB
:104AD00001F046FA322001F00BFE4FF40061132082
:104AE00001F03EFA1121292001F03AFA0B212B2086
:104AF00001F036FA322001F0FBFD0021202001F008
:104B00002FFA40F23F11212001F02AFA0021302033
:104B100001F026FA4FF48371312001F021FA0021CF
:104B2000322001F01DFA4FF40171352000E064E0FD
:104B300001F016FA41F20A61362001F011FA40F252
:104B40000771372001F00CFA4FF48371382001F01F
:104B500007FA40F20771392001F002FA40F20241EF
:104B60003C2001F0FDF940F60F413D2001F0F8F93D
:104B70000021502001F0F4F9EF21512001F0F0F96B
:104B80000021522001F0ECF940F23F11532001F0D6
:104B9000E7F94FF41C51602001F0E2F90121612096
:104BA00001F0DEF900216A2001F0DAF9002180200D
:104BB00001F0D6F90021812001F0D2F900218220F4
:104BC00001F0CEF90021832001F0CAF900218420F0
:104BD00001F0C6F90021852001F0C2F910219020D2
:104BE00001F0BEF94FF4C061922001F0B9F940F232
:104BF0003311072001F0B4F983E48948808845F235
:104C0000084188427ED14FF48071012001F0A8F95B
:104C10004FF4E061022001F0A3F941F230010320DA
:104C200001F09EF90021042001F09AF940F20721D9
:104C3000082001F095F90021092001F091F90021E7
:104C40000A2001F08DF900210C2001F089F90021E2
:104C50000D2001F085F900210F2001F081F91420C9
:104C600001F046FD41F2B061102001F079F9012117
:104C7000112001F075F90121172001F071F94FF4AD
:104C80009C71122001F06CF94FF40061132001F0C7
:104C900067F90921292001F063F909212A2001F08F
:104CA0005FF90021A42001F05BF90021502001F000
:104CB00057F9EF21512001F053F90021522001F062
:104CC0004FF940F23F11532001F04AF94FF41C51C3
:104CD000602001F045F90121612001F041F9002136
:104CE0006A2001F03DF90021802001F039F900210E
:104CF000812001F035F90021822001F031F90021F5
:104D0000832000E023E001F02BF90021842001F052
:104D100027F90021852001F023F91321902001F0CB
:104D20001FF90021922001F01BF90321932001F0CB
:104D300017F94FF48871952001F012F940F27311C0
:104D4000072001F00DF9322001F0D2FCB8E434481C
:104D5000808841F2055188427ED10021072001F070
:104D6000FFF8322001F0C4FC4FF48E71122001F0E4
:104D7000F7F80121A42001F0F3F80F21082001F039
:104D8000EFF808210A2001F0EBF808210D2001F0CE
:104D9000E7F840F20771302001F0E2F807213120F6
:104DA00001F0DEF840F20361322001F0D9F84FF44F
:104DB000E061332001F0D4F840F20221342001F008
:104DC000CFF80221352001F0CBF841F60F713620E3
:104DD00001F0C6F840F20771372001F0C1F8002158
:104DE000382001F0BDF80021392001F0B9F840F277
:104DF00007713A2001F0B4F800213B2001F0B0F82F
:104E000007213C2001F0ACF800213D2001F0A8F87A
:104E1000322001F06DFC0121072001F0A1F801E032
:104E20001C0900200121172001F09AF8322001F01E
:104E30005FFC4FF4BD51102001F092F840F21721B1
:104E4000112001F08DF84FF48F71122001F088F8D5
:104E50004FF47061132000E097E001F081F8002129
:104E60002A2001F07DF80A21292001F079F84FF479
:104E70009F71122001F074F80021502001F070F8A9
:104E8000EF21512001F06CF80021522001F068F868
:104E900040F23F11532001F063F84FF41C516020A1
:104EA00001F05EF80121612001F05AF800216A202A
:104EB00001F056F80021802001F052F800218120F5
:104EC00001F04EF80021822001F04AF800218320F1
:104ED00001F046F80021842001F042F800218520ED
:104EE00001F03EF81321902001F03AF84FF44071A0
:104EF000922001F035F80521932001F031F80021CE
:104F0000952001F02DF80021972001F029F80021CB
:104F1000982001F025F84FF48071012001F020F86D
:104F20004FF4E061022001F01BF841F23801032048
:104F300001F016F80021042001F012F800210C20E5
:104F400001F00EF800210F2001F00AF800212020C6
:104F500001F006F80021212001F002F821210720AC
:104F600000F0FEFF142001F0C3FB6121072000F0D8
:104F7000F7FF142001F0BCFB40F27311072000F092
:104F8000EFFF142001F0B4FB95E4FE4880884BF25B
:104F9000055188427ED10021084600F0E1FF002142
:104FA000084600F0DDFF0021084600F0D9FF00218F
:104FB000084600F0D5FF0121A42000F0D1FF142005
:104FC00001F096FB4FF41C51602000F0C9FF40F245
:104FD0000221082000F0C4FF4FF40571302000F0DA
:104FE000BFFF43F21571312000F0BAFF40F20461B7
:104FF000322000F0B5FF40F61661332000F0B0FF1C
:1050000042F21121342000F0ABFF4FF4A8513520BB
:1050100000F0A6FF48F20751362000F0A1FF41F250
:105020000741372000F09CFF41F20341382000F097
:1050300097FF2021392000F093FF1A21902000F0E3
:105040008FFF0021102000F08BFF0721112000F0BE
:1050500087FF0021122000F083FF0021132000F0C1
:105060007FFF142001F044FB4FF4E661102000F0B4
:1050700077FF40F23711112000F072FF142001F089
:1050800037FB4FF4DC71122000F06AFF142001F0AE
:105090002FFB00E083E04FF47061132000F060FF0D
:1050A00080212A2000F05CFF4821292000F058FFD1
:1050B000142001F01DFB4FF48071012000F050FF1F
:1050C0004FF4E061022000F04BFF41F23801032071
:1050D00000F046FF40F20221082000F041FF0021CD
:1050E0000A2000F03DFF00210C2000F039FF0021D4
:1050F0000D2000F035FF30210E2000F031FF00219F
:10510000502000F02DFFEF21512000F029FF002159
:10511000522000F025FF40F23F11532000F020FF05
:105120004FF41C51602000F01BFF0121612000F0B2
:1051300017FF00216A2000F013FF1121902000F0DA
:105140000FFF4FF4C061922000F00AFF40F20241CD
:10515000932000F005FF0221942000F001FF1420AD
:1051600001F0C6FA0121072000F0FAFE142001F038
:10517000BFFA6121072000F0F3FE40F2731107200F
:1051800000F0EEFE0021202000F0EAFE00212120A8
:1051900000F0E6FE2221002000F0E2FE11E3794853
:1051A00080884CF2055188427ED10021084600F0EB
:1051B000D7FE0021084600F0D3FE142001F098FA33
:1051C0000021084600F0CCFE0021084600F0C8FE91
:1051D0000021084600F0C4FE0021084600F0C0FE91
:1051E0000121A42000F0BCFE142001F081FA4FF44C
:1051F0001C51602000F0B4FE40F60601082000F0CB
:10520000AFFE40F20371302000F0AAFE01213120F0
:1052100000F0A6FE0421322000F0A2FE4FF48171BE
:10522000332000F09DFE4FF44071342000F098FED2
:1052300040F20311352000F093FE1F21362000F0CC
:105240008FFE40F20371372000F08AFE01213820E2
:1052500000F086FE0421392000F082FE1521902006
:1052600000F07EFE4FF48261102000F079FE40F2E3
:105270004721112000F074FE4FF4DE71122000F07F
:105280006FFE4FF46061132000F06AFE782001F099
:105290002FFA4FF48071012000F062FE4FF400718C
:1052A000022000F05DFE00E050E041F230010320FA
:1052B00000F056FE08210A2000F052FE00210C20CA
:1052C00000F04EFE20210E2000F04AFE00210F20AB
:1052D00000F046FE0021202000F042FE00212120A7
:1052E00000F03EFE3D212A2000F03AFE142001F09D
:1052F000FFF92D21292000F033FE0021502000F07D
:105300002FFE4DF2EF01512000F02AFE0021522025
:1053100000F026FE40F23F11532000F021FE002154
:10532000612000F01DFE00216A2000F019FE4FF4FC
:105330004071922000F014FE0521932000F010FE31
:105340004FF48071072000F00BFE3AE20D48808890
:1053500044F2315188427CD10121002000F000FE4E
:105360000A2001F0C5F941F22861102000F0F8FD93
:105370000E21122000F0F4FD40F63921132000F038
:10538000EFFD01E01C0900200A2001F0B1F94021E5
:10539000112000F0E5FD5021152000F0E1FD0A206C
:1053A00001F0A6F91E21122000F0DAFD0A2001F01A
:1053B0009FF94FF4B151102000F0D2FD42F639218F
:1053C000132000F0CDFD0A2001F092F94FF4807116
:1053D000012000F0C5FD4FF44071022000F0C0FD37
:1053E00041F23801032000F0BBFD40F20221082009
:1053F00000F0B6FD08210A2000F0B2FD00213020A7
:1054000000F0AEFD40F20241312000F0A9FD4FF462
:105410008371322000F0A4FD40F20351332000F0EC
:105420009FFD4FF48271342000F09AFD40F201316B
:10543000352000F095FD40F20771362000F090FD18
:1054400040F20531372000F08BFD4FF40271382017
:1054500000E040E000F084FD40F60B71392000F0E0
:105460007FFD0221412000F07BFD4FF41C516020A4
:1054700000F076FD0121612000F072FD4FF404710F
:10548000902000F06DFD4FF48571922000F068FDD2
:105490000421932000F064FD4FF48071A02000F0FF
:1054A0005FFD0121072000F05BFD2121072000F0B6
:1054B00057FD2321072000F053FD3321072000F082
:1054C0004FFD40F23311072000F04AFD0021A020DB
:1054D00000F046FD75E1C148808844F235518842AC
:1054E0007ED13021152000F03BFD10219A2000F0E4
:1054F00037FD2021112000F033FD43F22841102018
:1055000000F02EFD0221122000F02AFD41F23801A8
:10551000132000F025FD282001F0EAF812210846AA
:1055200000F01EFD282001F0E3F843F22041102096
:1055300000F016FD43F23801132000F011FD462063
:1055400001F0D6F80021302000F00AFD40F20241BF
:10555000312000F005FD40F20731322000F000FD5F
:105560004FF44171332000F0FBFC0421342000F0A3
:10557000F7FC40F20141352000F0F2FC40F20771E7
:10558000362000F0EDFC40F20531372000F0E8FC59
:105590004FF4C261382000F0E3FC4FF4C2613920BF
:1055A00000F0DEFC4FF48071012000F0D9FC4FF4D4
:1055B0004071022000F0D4FC41F23001032000F0E1
:1055C000CFFC40F60801082000F0CAFC08210A20A0
:1055D00000F0C6FC4FF41C51602000F0C1FC00E05C
:1055E00031E00121612000F0BBFC4FF49F7190205D
:1055F00000F0B6FC4FF48071922000F0B1FC4FF443
:105600008071932000F0ACFC4FF44051A02000F0DA
:10561000A7FC1021A32000F0A3FC0121072000F02B
:105620009FFC2121072000F09BFC2321072000F094
:1056300097FC3321072000F093FC40F23311072040
:1056400000F08EFCBDE06548808841F66311884219
:10565000F8D1E22000F074FC1D2000F06BFC022069
:1056600000F068FC042000F065FC642001F066F89E
:10567000E02000F065FC012000F05CFC0A2001F055
:1056800037F8E02000F05CFC032000F053FC0C2015
:1056900001F02EF8012000F053FC0A2001F028F858
:1056A000E62000F04DFC2F2000F044FCFF2000F02D
:1056B00041FCFF2000F03EFCB02000F041FC202027
:1056C00000F038FC002000F035FC032000F032FC34
:1056D00040F21F3000F02EFC012000F02BFC40F2C5
:1056E000DF1000F027FC002000F024FCB42000F0C4
:1056F00027FC042000F01EFC40F21F4000F01AFCC2
:10570000002000F017FC2E2000F014FC002000F018
:1057100011FC002000F00EFC002000F00BFC00202B
:1057200000F008FCB62000F00BFC022000F002FCA8
:105730004FF4037000F0FEFB002000F0FBFB17208D
:1057400000F0F8FB152000F0F5FB002000F0F2FB64
:10575000002000F0EFFBF02000F0F2FB032000F04F
:10576000E9FB292000F0ECFBD02000F0E9FB002051
:1057700000F0E0FBBE2000F0E3FB052000F0DAFBC8
:10578000FE2000F0D7FB012000F0D4FB002000F049
:10579000D1FB002000F0CEFB002000F0CBFBB820B6
:1057A00000F0CEFB032000F0C5FB012000F0C2FB9F
:1057B000BA2000F0C5FB012000F0BCFB642000F023
:1057C00033F80020FCF764FA0120054908604FF621
:1057D000FF70FCF727FA1FB000BD00001C09002075
:1057E0008081214210B50246012000E050430B00A9
:1057F000A1F10104E1B2F9D110BD000008B50348E0
:1058000000880090BDF8000008BD00000008006C92
:1058100010B50446204600F093FB052000F08EFFF3
:10582000FFF7ECFF10BD00002DE9F0470446BE2055
:1058300000F086FB052000F07DFB204601F041FAD8
:1058400007464FF066320C4B01F04EFA054601F068
:105850000BFA1FFA80F9484600F06CFB012000F0BB
:1058600069FBFF2000F066FB002000F063FB0020D6
:1058700000F060FBBDE8F0876666044070B5044642
:1058800000230026B748807901280BD1B5488088CD
:1058900046F60401884205D0B248808841F663117B
:1058A000884208D1AF488079F0B9AE48808841F687
:1058B0006311884218D1082C15D2DFE804F00406E1
:1058C000080A0C0E101206240DE007240BE0042435
:1058D00009E0052407E0012405E0002403E0032497
:1058E00001E0022400BF00BF9E48808849F2413198
:1058F000884217D09B48808846F60401884211D020
:105900009848808845F2103188420BD095488088AD
:1059100045F21051884205D09248808841F66311C3
:1059200088427DD1082C1CD2DFE804F00406090C63
:105930000F12151800BF14E043F0800311E043F08C
:1059400040030EE043F0C0030BE043F0200308E007
:1059500043F0600305E043F0A00302E043F0E003FE
:1059600000BF00BF7F48808845F21051884202D1B5
:105970004FF4585600E036267A48808845F21031B8
:1059800088420DD07748808845F21051884207D070
:105990007448808841F66311884201D043F00803BF
:1059A0007048808846F60401884201D143F0020322
:1059B0001946304600F0D4FA6A48808841F66311EF
:1059C00088421DD003F0200068B166480088654910
:1059D0004988884214DA634805884088614908800C
:1059E000084645800CE05F4800885E494988884247
:1059F00006DD5C48058840885A490880084645808D
:105A00005848808845F21051884254D155494889F8
:105A100000F096FA002000F08DFA5249498900E022
:105A200078E0491C88B200F08BFA002000F082FA7E
:105A30004C494989891C88B200F082FA4949098891
:105A4000491EC1F30F2000F075FA46494989C91C67
:105A500088B200F075FA43490978491EC8B200F0CF
:105A600069FA4049888900F06BFA002000F062FA78
:105A70003C498989491C88B200F062FA002000F094
:105A800059FA38498989891C88B200F059FA354990
:105A90004988491EC1F30F2000F04CFA3149898929
:105AA000C91C88B200F04CFA2E498978491EC8B248
:105AB00000F040FA55E02B49488900F041FA0020F7
:105AC00000F038FA002000F035FA26490988491E0E
:105AD000C1F30F2000F02EFA22490978491EC8B2FE
